{
  "_format": "hh-sol-artifact-1",
  "contractName": "HelloWorld",
  "sourceName": "contracts/HelloWorld.sol",
  "abi": [
    {
      "inputs": [
        {
          "internalType": "string",
          "name": "_initMessage",
          "type": "string"
        }
      ],
      "stateMutability": "nonpayable",
      "type": "constructor"
    },
    {
      "anonymous": false,
      "inputs": [
        {
          "indexed": false,
          "internalType": "string",
          "name": "oldStr",
          "type": "string"
        },
        {
          "indexed": false,
          "internalType": "string",
          "name": "newMessage",
          "type": "string"
        }
      ],
      "name": "UpdateMessage",
      "type": "event"
    },
    {
      "inputs": [
        {
          "internalType": "uint256",
          "name": "num",
          "type": "uint256"
        }
      ],
      "name": "favoriteNumber",
      "outputs": [],
      "stateMutability": "nonpayable",
      "type": "function"
    },
    {
      "inputs": [],
      "name": "message",
      "outputs": [
        {
          "internalType": "string",
          "name": "",
          "type": "string"
        }
      ],
      "stateMutability": "view",
      "type": "function"
    },
    {
      "inputs": [],
      "name": "number",
      "outputs": [
        {
          "internalType": "uint256",
          "name": "",
          "type": "uint256"
        }
      ],
      "stateMutability": "view",
      "type": "function"
    },
    {
      "inputs": [],
      "name": "retrieve",
      "outputs": [
        {
          "internalType": "uint256",
          "name": "",
          "type": "uint256"
        }
      ],
      "stateMutability": "view",
      "type": "function"
    },
    {
      "inputs": [
        {
          "internalType": "string",
          "name": "_newMessage",
          "type": "string"
        }
      ],
      "name": "update",
      "outputs": [],
      "stateMutability": "nonpayable",
      "type": "function"
    }
  ],
  "bytecode": "0x60806040523480156200001157600080fd5b50604051620009d9380380620009d9833981810160405281019062000037919062000179565b80600090805190602001906200004f92919062000057565b50506200032e565b828054620000659062000253565b90600052602060002090601f016020900481019282620000895760008555620000d5565b82601f10620000a457805160ff1916838001178555620000d5565b82800160010185558215620000d5579182015b82811115620000d4578251825591602001919060010190620000b7565b5b509050620000e49190620000e8565b5090565b5b8082111562000103576000816000905550600101620000e9565b5090565b60006200011e6200011884620001e7565b620001be565b9050828152602081018484840111156200013757600080fd5b620001448482856200021d565b509392505050565b600082601f8301126200015e57600080fd5b81516200017084826020860162000107565b91505092915050565b6000602082840312156200018c57600080fd5b600082015167ffffffffffffffff811115620001a757600080fd5b620001b5848285016200014c565b91505092915050565b6000620001ca620001dd565b9050620001d8828262000289565b919050565b6000604051905090565b600067ffffffffffffffff821115620002055762000204620002ee565b5b62000210826200031d565b9050602081019050919050565b60005b838110156200023d57808201518184015260208101905062000220565b838111156200024d576000848401525b50505050565b600060028204905060018216806200026c57607f821691505b60208210811415620002835762000282620002bf565b5b50919050565b62000294826200031d565b810181811067ffffffffffffffff82111715620002b657620002b5620002ee565b5b80604052505050565b7f4e487b7100000000000000000000000000000000000000000000000000000000600052602260045260246000fd5b7f4e487b7100000000000000000000000000000000000000000000000000000000600052604160045260246000fd5b6000601f19601f8301169050919050565b61069b806200033e6000396000f3fe608060405234801561001057600080fd5b50600436106100575760003560e01c80632abdcfd41461005c5780632e64cec1146100785780633d7403a3146100965780638381f58a146100b2578063e21f37ce146100d0575b600080fd5b610076600480360381019061007191906103d9565b6100ee565b005b6100806100f8565b60405161008d91906104a3565b60405180910390f35b6100b060048036038101906100ab9190610398565b610102565b005b6100ba6101e4565b6040516100c791906104a3565b60405180910390f35b6100d86101ea565b6040516100e5919061044a565b60405180910390f35b8060018190555050565b6000600154905090565b60008080546101109061057c565b80601f016020809104026020016040519081016040528092919081815260200182805461013c9061057c565b80156101895780601f1061015e57610100808354040283529160200191610189565b820191906000526020600020905b81548152906001019060200180831161016c57829003601f168201915b5050505050905081600090805190602001906101a6929190610278565b507f72509cb1827c1f708c15974ef6a2db102be98f5a40f067c96a4e5ef4078030c581836040516101d892919061046c565b60405180910390a15050565b60015481565b600080546101f79061057c565b80601f01602080910402602001604051908101604052809291908181526020018280546102239061057c565b80156102705780601f1061024557610100808354040283529160200191610270565b820191906000526020600020905b81548152906001019060200180831161025357829003601f168201915b505050505081565b8280546102849061057c565b90600052602060002090601f0160209004810192826102a657600085556102ed565b82601f106102bf57805160ff19168380011785556102ed565b828001600101855582156102ed579182015b828111156102ec5782518255916020019190600101906102d1565b5b5090506102fa91906102fe565b5090565b5b808211156103175760008160009055506001016102ff565b5090565b600061032e610329846104e3565b6104be565b90508281526020810184848401111561034657600080fd5b61035184828561053a565b509392505050565b600082601f83011261036a57600080fd5b813561037a84826020860161031b565b91505092915050565b6000813590506103928161064e565b92915050565b6000602082840312156103aa57600080fd5b600082013567ffffffffffffffff8111156103c457600080fd5b6103d084828501610359565b91505092915050565b6000602082840312156103eb57600080fd5b60006103f984828501610383565b91505092915050565b600061040d82610514565b610417818561051f565b9350610427818560208601610549565b6104308161063d565b840191505092915050565b61044481610530565b82525050565b600060208201905081810360008301526104648184610402565b905092915050565b600060408201905081810360008301526104868185610402565b9050818103602083015261049a8184610402565b90509392505050565b60006020820190506104b8600083018461043b565b92915050565b60006104c86104d9565b90506104d482826105ae565b919050565b6000604051905090565b600067ffffffffffffffff8211156104fe576104fd61060e565b5b6105078261063d565b9050602081019050919050565b600081519050919050565b600082825260208201905092915050565b6000819050919050565b82818337600083830152505050565b60005b8381101561056757808201518184015260208101905061054c565b83811115610576576000848401525b50505050565b6000600282049050600182168061059457607f821691505b602082108114156105a8576105a76105df565b5b50919050565b6105b78261063d565b810181811067ffffffffffffffff821117156105d6576105d561060e565b5b80604052505050565b7f4e487b7100000000000000000000000000000000000000000000000000000000600052602260045260246000fd5b7f4e487b7100000000000000000000000000000000000000000000000000000000600052604160045260246000fd5b6000601f19601f8301169050919050565b61065781610530565b811461066257600080fd5b5056fea26469706673582212205618ff6f5649dc54d2ab802c2ddb70f6ec14002e235f3256cfc9ea98b02ac6f564736f6c63430008030033",
  "linkReferences": {},
  "deployedLinkReferences": {}
}